:100000006F005067000000004A0100004E01000030
:1000100000000000000000000000000000000000E0
:1000200000000000000000000000000000000000D0
:10003000420E000000000000440E0000000000001E
:10004000460E0000480E00004A0E00004C0E000054
:100050004E0E0000500E0000520E0000540E000024
:10006000560E0000580E00005A0E00005C0E0000F4
:100070005E0E0000600E0000620E0000640E0000C4
:10008000660E0000680E00006A0E00006C0E000094
:100090006E0E0000700E0000720E000000000000E6
:1000A000511126C022C206C4828282441244A24058
:1000B000310182802A86014593F6150091C232955E
:1000C00085810606F5F9828000000000634E050276
:1000D00063C305042E86AA857D5515C285466378BF
:1000E000B6006356C00006068606E36CB6FE014500
:1000F00063E4C500918D558D85820582F5FA828075
:100100008682C93F2E8582823305A04063D70500D1
:10011000B305B040C1B7B305B0408682653F330533
:10012000A0408282868263C70500634905005D376F
:100130002E858282B305B040E35B05FE3305A04007
:10014000513F3305B040828200007300203001A08F
:100150009377050F1307000C638BE7041307000D5B
:100160006380E7061307000A0146639CE700371720
:1001700002401C4F371601401306068093E74700E4
:100180001CCF9376F500218935ED18421395260092
:10019000BD47B397A70093C7F7FFF98F054763885B
:1001A000E504634AB7024547A1C51CC282803717E0
:1001B00002401C4F3716014093E707011CCFD1B70F
:1001C000371702401C4F371601401306064093E7CD
:1001D00007021CCF7DB70943638065020D43E39698
:1001E00065FC3317D70058CA1307800211A01147C6
:1001F0003315A700C98F55BF3317D70018CA130787
:100200008004FDB7138786FF9376F70F032346001C
:1002100013972600BD47B397E70093C7F7FF05453F
:1002200033F36700638AA5026347B500C54795C5E8
:1002300023226600828089476386F5028D47E39911
:10024000F5FE93058002A1063397E500B317D500AC
:100250003363E3005CCAE9BF91473397E700336338
:10026000E300F9B793078004A1063397E70033153D
:10027000D5003363E30008CA65BF9307050693F70B
:10028000F70F1307F0036366F700EFF27FE1C9355C
:1002900029BD82809377F50005473317F700930651
:1002A000000C9377050F6383D7029306000D6383D9
:1002B000D7029306000A01456397D700B71701409C
:1002C00003A58780798D3335A0008280B717014060
:1002D0008847CDBFB717014003A58740E5B793779F
:1002E000F5000547B317F70091E1C2071375050F35
:1002F0001307000C630FE5001307000D630FE50003
:100300001307000A631FE500371701402328F78011
:100310008280371701401CCB828037170140232889
:10032000F7408280EFF2DFD71375050F9307000CBB
:100330006301F5029307000D6300F5029307000ABD
:100340006318F5003715014013050580EF00D03A1A
:10035000A9BB37150140DDBF371501401305054026
:10036000F5B7EFF2FFD303C551832D373DBBEFF255
:100370003FD303C551838D45093705BBEFF25FD2EB
:1003800013845183034504008145C53D03450400A2
:100390008145B13719BBEFF2BFD003C541838D450D
:1003A000E93D21B3EFF2DFCF13844183034504001D
:1003B0008145E1350345040081451537FDB1EFF274
:1003C0003FCE7111A1472A843EC093178401E18773
:1003D00063D80704693FC137B707002093844700FB
:1003E000884006041374F40FEF00F034653F884032
:1003F000EF0070348247FD1793F7F70F3EC0F1F717
:10040000BD37513F8840EF001033A13F2A84593F48
:100410008840EF0050329D3713351400110171B13F
:10042000B13F55BFEFF2DFC771112AC0A144813738
:100430000144B707002013874700084306041374DC
:10044000F40FEF00502F813FB707002013874700BC
:100450000843EF00502E313719C113641400993747
:100460009387F4FF93F4F70FE9F4824785C70137C8
:100470001D37B7040020938744008843EF00B02B5A
:100480001537938744008843EF00F02AC53D228545
:10049000110121B9E535E9BFEFF29FC03704002013
:1004A00013044400E13D0840EF00F028ED3508401A
:1004B000EF0070286D3D0840EF00F027FDB6EFF229
:1004C0003FBE71112EC02A84553DB707002003A5F9
:1004D0004700EF005026F9358245131514001375B7
:1004E000F50F81C505051375F50FD13D110175BED9
:1004F000EFF21FBB2E848145B284D137054581C4FC
:1005000085476304F500493F4DB605040345F4FFF4
:100510007D358547E315F5FEFD14D5B7EFF25FB8DD
:10052000AE8485453284613F7D14FD576315F40028
:10053000A53705459DBE133514008504E535A38F09
:10054000A4FEDDB7EFF2DFB5711181458D3F2AC002
:10055000A137024511013335A00081BEEFF25FB42F
:100560006111B284A303B1000546930571002A848A
:1005700036C0BD3F8246A685228536864537210195
:100580002DB62A8793561500854763F7B6000145B7
:1005900099E711C218C2828086078605FDB7636499
:1005A000B7000D8F3E9585838581DDB72A9663134D
:1005B000C50082800505A30FB5FED5BFEFF25FAE83
:1005C0001307F5FF89477111014463E1E70423A68E
:1005D000A1806310F5041307800623A4E180A38A99
:1005E000B182238AC1825147B707002023A2E700C6
:1005F00089470544631CF50089679387E7C023108A
:10060000F10003C5818009468A85DD352285110107
:1006100069BC8D47E315F5FC130710057DBF9357A3
:10062000450013972700BA9786073D893E951375B5
:10063000F50F8280EFF2DFA671110A86A945913786
:10064000824712053E951375F50F1101B9BCEFF203
:100650003FA583A7C180094731112A84639DE7061E
:100660000345050023000100F137A300A100034565
:100670004400C9372301A10003458400653F1C4C99
:10068000A301A1000345C40085072302F1005D37E3
:10069000A302A100084805051375F50F613F8347C4
:1006A00044012303A10013073006637AF7001365A2
:1006B00005F89387C7F92303A10093F7F70F3E8549
:1006C000953FA303A10003C581808A8521460D358E
:1006D00051016FF09F9D0D47E397E7FE034505002D
:1006E00085472300F100B937A300A100034544006A
:1006F00091372301A100034584002D3F1C4CA30129
:10070000A1000345C40085072302F1002537A30299
:10071000A100084805051375F50F293F2303A10023
:100720000345440193073006E3FCA7F81305C5F918
:100730001375F50F71B7EFF2BF9683A7C180094714
:1007400031112A846396E70A03C581809D460A8693
:10075000814529351306400281452285813D0345A7
:100760000100753D08C003451100553D48C00345D3
:10077000210093770504BDCB9357450013F717006D
:1007800093172700BA971377F50015810589860717
:10079000BA97131715003A950A053E95834731001D
:1007A00008C403454100FD171CCC953D834451000E
:1007B00048C40345610013D744009377170013978B
:1007C00027003E97060793F7F4003E977D1718C859
:1007D000B93513D7740093171700BA978E07BA97D5
:1007E0008A073E9548C851016FF03F8C0D3D7DB79B
:1007F0000D47E39AE7FE03C581809D460A8685453D
:10080000B13B13064002814522854D33034501006B
:10081000393508C003451100193548C0034521008A
:10082000FD3B8347310008C403454100FD171CCC44
:10083000FD330347510048C4034561009357470007
:1008400093F6170093972600B6973D8B8607BA97C5
:10085000FD171CC8E9331305450669B7EFF25F843D
:10086000B7040020938484012A849365050803C596
:1008700004006111130671008546CD318347710074
:1008800003C504009305140093E505F813067100F1
:10089000854693F5F50F3EC0D1310345710082477F
:1008A00022055D8D21016FF05F80EFF26FFF37044D
:1008B00000209304C40171111305900323A00400C8
:1008C00051311304C40121C113079003B70700205D
:1008D00085460A86930520091305900323ACE7009B
:1008E000B53983470100130790036398E7008547F4
:1008F0009CC0054511016FF04FFB1307B00A6394CC
:10090000E7008947F5B7130530022D3919E1014594
:10091000D5B7B70700201307300285460A8693052E
:1009200060081305300223ACE7000D3903470100CE
:1009300093072009E31DF7FC8D471CC0C9BFEFF2E8
:100940002FF6B707002003A7C7018D477111631663
:10095000F702930720F82300F1009377750093E7DF
:100960008707A300F100B707002003C587018A8528
:100970000946BD3E11016FF04FF38D47898F9A07ED
:100980001307F0F82300E10093E70702D9BFEFF265
:100990002FF1B707002083A7C7010D4771112A84E3
:1009A0006391E7049377150081CF93070018231014
:1009B000F100B707002003C5870109468A850D3E6F
:1009C000098809CC8967938717282310F100B70796
:1009D000002003C5870109468A85193E11016FF081
:1009E000CFECFD170547E36BF7FE1377150085473E
:1009F00011C38D47098819C093E7470037040020C9
:100A00001304840103450400130700F809468A858E
:100A10002300E100A300F100EFF09FAD03450400C7
:100A2000930710FA11468A853EC0EFF07FAC03456C
:100A3000040085679387E78809468A852310F100BB
:100A4000EFF01FAB8D679387F7D82310F1000946AD
:100A50008A850345040051B7EFF28FE4B707002001
:100A60009387C7019843054371117D170144636162
:100A7000E306B70400209384840103C5040085467F
:100A80000A8693053009EFF07FAD03470100098B1B
:100A900021C3B70700209387C7019C43054303C5C3
:100AA000040085460A866399670293058009EFF082
:100AB000FFAA03C50400854613061100930590099B
:100AC000EFF0DFA9034411008347010022043E94A4
:100AD000228511016FF06FDD9305C009EFF01FA8AB
:100AE00003440100F5B7EFF2AFDB5145853B6FF0F2
:100AF000CFDBEFF2EFDAB707002003A707004111C1
:100B0000938707003EC26357E00885679387C70B4A
:100B10003E95B7070020368493868700AE9603473C
:100B2000050003C50600AE8481453AC632C036C40E
:100B3000EFF0AFF4A246824703C5060093B5170055
:100B4000EFF0EFF98246324789E61347F7FF137754
:100B5000F70F9315170093F5E50F1305000CEFF051
:100B60006FFC924722858C43EFF0CFD42185098C0E
:100B7000D926B707002093878700BE9403C50400D9
:100B80008545EFF08FEF03C504008545EFF02FF5A5
:100B90002285552641016FF04FD1EFF26FD01387B8
:100BA00001815C431306B003AA976349F6005CC356
:100BB00013850181EFF0BFA96FF02FCF938747FC1A
:100BC0005CC31C475D4685076344F6001CC7CDB770
:100BD00023240700F1BFEFF2AFCC130181FC856540
:100BE000938445086946938545082A840A85752EAD
:100BF0009385C401694668084D2EF535AA84A93D40
:100C00009307F00B63CDA7000D853C183E95034577
:100C100085FC11C004C0130181036FF00FC9158555
:100C20003C183E950345E5FDEDB7EFF26FC7511156
:100C30000945E924F9241305007D1D2E1306000D36
:100C40009305000C0945EFF07F9789451305100ABD
:100C5000EFF00FD089451305200AEFF06FCFB131C7
:100C60000D4535330D45B7040020D13993848400F8
:100C700003C5040085458504EFF02FE003C5F4FFAC
:100C80008545EFF0CFE5B70700209387D700E391C4
:100C900097FE9304100C93F7F40F3E8581453EC0F8
:100CA000EFF0AFDD8247814585043E85EFF02FE30D
:100CB0009307800CE391F4FE85473EC013850181C4
:100CC000EFF07FA782471307800C3EC09384018119
:100CD0008844A9453AC2EFF06FBF9306803E0146B3
:100CE00081451375F50F31358844A945EFF08FC361
:100CF0009306803E014685451375F50FDD3BC840E0
:100D0000A945EFF0AFBC9306803E014689451375B7
:100D1000F50FC533C840A945EFF0CFC09306803E1C
:100D200001468D451375F50FE933824788409306D8
:100D3000803E01467D8D1335150091452905553BB3
:100D4000124782477D1751F31305100AEFF08FD435
:100D500019E1054599351305200AEFF0AFD319E1E4
:100D60002945253D2800853DA24737070020130768
:100D7000070095E39306000A3385A640144363D524
:100D8000A60008C3154415BF01C47D14E31704F27F
:100D900008C301441DB7F54663C5F600E5471CC30B
:100DA00021BF93060010E3DCF6FE14C331B7B7177A
:100DB00002409843B706FFFC1367170098C3D84357
:100DC000758FD8C39843B706F7FEFD16758F98C385
:100DD0009843B706FCFFFD16758F98C3D44341773F
:100DE0007D17F98ED4C3B7069F0094C7B72602407B
:100DF0009042719A90C290421366160090C2D443FA
:100E0000D4C3D443758FD8C3D843B7060001D8C321
:100E10009843558F98C3984393166700E3DD06FE09
:100E2000D843B7160240719BD8C3D8431367270035
:100E3000D8C32147DC42B18BE39EE7FE828001A04C
:100E400001A001A001A001A001A001A001A001A09A
:100E500001A001A001A001A001A001A001A001A08A
:100E600001A001A001A001A001A001A001A001A07A
:100E700001A001A0970100209381419A138181FE76
:100E8000170500001305852497F5FF1F9385851727
:100E900017F6FF1F1306861863FAC50083220500A4
:100EA00023A0550011059105E3EAC5FE17F5FF1FC4
:100EB0001305C516938501846377B50023200500CB
:100EC0001105E36DB5FE93020008739002308D4268
:100ED0007390428097F2FFFF9382C21293E2320036
:100EE00073905230EFF0BFEC97020000938222D44F
:100EF00073901234730020304CC5828023ACA182E1
:100F00008280EFF2EF99B707002003A50701B7151C
:100F10007A0093850520EFF0EF9B1375F50F238F73
:100F2000A18293175500898F8A073E950E05239E4F
:100F3000A1826FF08F97EFF2AF9637F400E05C403C
:100F4000AA85F99B5CC003C5E183EFF0AF9608C8A2
:100F5000232404001C4093E717001CC0B7F700E0EF
:100F6000D843058B75DF9843799B98C36FF0EF9357
:100F7000EFF20F9337F400E05C40AA85F99B5CC068
:100F800003D5C183EFF00F9308C8232404001C404D
:100F900093E717001CC0B7F700E0D843058B75DF57
:100FA0009843799B98C36FF04F90B3C7A5008D8B82
:100FB0003307C50081E78D4763E9C702AA876371DC
:100FC000E50C83C6050085078505A38FD7FEE3EAF8
:100FD000E7FE828083C6050085078505A38FD7FEBF
:100FE000E3EAE7FE02441101828093763500AA8786
:100FF00091CA83C6050085078505A38FD7FE93F6A2
:101000003700FDB79376C7FF138606FE63F5C70664
:10101000711122C0C04903A3050083A38500C0CB82
:10102000804D23A0670003A3450080CFC04D23A2BD
:10103000670083A2C50003A3050193854502C0CFC5
:1010400003A4C5FF23A4770023A6570023A86700A5
:101050009387470223AE87FEE3EEC7FAE3F2D7F8A1
:1010600090419107910523AEC7FECDBF90419107F6
:10107000910523AEC7FEE3EBD7FEE3E4E7F48280FD
:1010800082800000C8C8C8C8C8C8C8C8C8C8968C6C
:1010900082786E69645E5A56524E4A49484700004B
:1010A0004644413C3A3732302C2A28262524232234
:1010B00021201F1E1E1E1E1E1E1E00003F065B4F0F
:0810C000666D7D077F6F0300E0
:1010C8005500000001000000D2D3D4D5D70000009D
:0810D800006CDC0200000000C6
:00000001FF
